{"address":"0xc58Ecd8c09dabde731143465689Cfa71a6943b45","bytecode":"0x60806040523480156200001157600080fd5b5060405162001ac938038062001ac9833981810160405281019062000037919062000140565b846000806101000a81548173ffffffffffffffffffffffffffffffffffffffff021916908373ffffffffffffffffffffffffffffffffffffffff160217905550836001819055508260028190555081600360006101000a81548173ffffffffffffffffffffffffffffffffffffffff021916908373ffffffffffffffffffffffffffffffffffffffff16021790555080600460006101000a81548173ffffffffffffffffffffffffffffffffffffffff021916908373ffffffffffffffffffffffffffffffffffffffff160217905550505050505062000234565b600081519050620001238162000200565b92915050565b6000815190506200013a816200021a565b92915050565b600080600080600060a086880312156200015957600080fd5b6000620001698882890162000112565b95505060206200017c8882890162000129565b94505060406200018f8882890162000129565b9350506060620001a28882890162000112565b9250506080620001b58882890162000112565b9150509295509295909350565b6000620001cf82620001e0565b9050919050565b6000819050919050565b600073ffffffffffffffffffffffffffffffffffffffff82169050919050565b6200020b81620001c2565b81146200021757600080fd5b50565b6200022581620001d6565b81146200023157600080fd5b50565b61188580620002446000396000f3fe6080604052600436106100745760003560e01c8063c55dae631161004e578063c55dae63146100ed578063d8890f9e14610118578063f1a2e84914610141578063f338f2bf1461016c5761007b565b8063217a4b701461008057806338bde791146100ab578063853828b6146100d65761007b565b3661007b57005b600080fd5b34801561008c57600080fd5b50610095610188565b6040516100a291906111d7565b60405180910390f35b3480156100b757600080fd5b506100c06101ae565b6040516100cd91906111f2565b60405180910390f35b3480156100e257600080fd5b506100eb610260565b005b3480156100f957600080fd5b50610102610516565b60405161010f91906111d7565b60405180910390f35b34801561012457600080fd5b5061013f600480360381019061013a9190610f73565b61053c565b005b34801561014d57600080fd5b506101566105d2565b60405161016391906111f2565b60405180910390f35b61018660048036038101906101819190610f07565b610684565b005b600460009054906101000a900473ffffffffffffffffffffffffffffffffffffffff1681565b6000600360009054906101000a900473ffffffffffffffffffffffffffffffffffffffff1673ffffffffffffffffffffffffffffffffffffffff166370a08231306040518263ffffffff1660e01b815260040161020b919061111d565b60206040518083038186803b15801561022357600080fd5b505afa158015610237573d6000803e3d6000fd5b505050506040513d601f19601f8201168201806040525081019061025b9190610fff565b905090565b600360009054906101000a900473ffffffffffffffffffffffffffffffffffffffff1673ffffffffffffffffffffffffffffffffffffffff1663a9059cbb33600360009054906101000a900473ffffffffffffffffffffffffffffffffffffffff1673ffffffffffffffffffffffffffffffffffffffff166370a08231306040518263ffffffff1660e01b81526004016102fa919061111d565b60206040518083038186803b15801561031257600080fd5b505afa158015610326573d6000803e3d6000fd5b505050506040513d601f19601f8201168201806040525081019061034a9190610fff565b6040518363ffffffff1660e01b815260040161036792919061116f565b602060405180830381600087803b15801561038157600080fd5b505af1158015610395573d6000803e3d6000fd5b505050506040513d601f19601f820116820180604052508101906103b99190610ede565b50600460009054906101000a900473ffffffffffffffffffffffffffffffffffffffff1673ffffffffffffffffffffffffffffffffffffffff1663a9059cbb33600460009054906101000a900473ffffffffffffffffffffffffffffffffffffffff1673ffffffffffffffffffffffffffffffffffffffff166370a08231306040518263ffffffff1660e01b8152600401610454919061111d565b60206040518083038186803b15801561046c57600080fd5b505afa158015610480573d6000803e3d6000fd5b505050506040513d601f19601f820116820180604052508101906104a49190610fff565b6040518363ffffffff1660e01b81526004016104c192919061116f565b602060405180830381600087803b1580156104db57600080fd5b505af11580156104ef573d6000803e3d6000fd5b505050506040513d601f19601f820116820180604052508101906105139190610ede565b50565b600360009054906101000a900473ffffffffffffffffffffffffffffffffffffffff1681565b836001819055508260028190555081600360006101000a81548173ffffffffffffffffffffffffffffffffffffffff021916908373ffffffffffffffffffffffffffffffffffffffff16021790555080600460006101000a81548173ffffffffffffffffffffffffffffffffffffffff021916908373ffffffffffffffffffffffffffffffffffffffff16021790555050505050565b6000600460009054906101000a900473ffffffffffffffffffffffffffffffffffffffff1673ffffffffffffffffffffffffffffffffffffffff166370a08231306040518263ffffffff1660e01b815260040161062f919061111d565b60206040518083038186803b15801561064757600080fd5b505afa15801561065b573d6000803e3d6000fd5b505050506040513d601f19601f8201168201806040525081019061067f9190610fff565b905090565b60008060009054906101000a900473ffffffffffffffffffffffffffffffffffffffff1673ffffffffffffffffffffffffffffffffffffffff1663d47eed4584846040518363ffffffff1660e01b81526004016106e2929190611198565b60206040518083038186803b1580156106fa57600080fd5b505afa15801561070e573d6000803e3d6000fd5b505050506040513d601f19601f820116820180604052508101906107329190610fff565b905060008054906101000a900473ffffffffffffffffffffffffffffffffffffffff1673ffffffffffffffffffffffffffffffffffffffff1663ef9e5e288285856040518463ffffffff1660e01b8152600401610790929190611198565b6000604051808303818588803b1580156107a957600080fd5b505af11580156107bd573d6000803e3d6000fd5b505050505060008060009054906101000a900473ffffffffffffffffffffffffffffffffffffffff1673ffffffffffffffffffffffffffffffffffffffff166331d98b3f6001546040518263ffffffff1660e01b815260040161082091906111bc565b60806040518083038186803b15801561083857600080fd5b505afa15801561084c573d6000803e3d6000fd5b505050506040513d601f19601f820116820180604052508101906108709190610fd6565b905060008060009054906101000a900473ffffffffffffffffffffffffffffffffffffffff1673ffffffffffffffffffffffffffffffffffffffff166331d98b3f6002546040518263ffffffff1660e01b81526004016108d091906111bc565b60806040518083038186803b1580156108e857600080fd5b505afa1580156108fc573d6000803e3d6000fd5b505050506040513d601f19601f820116820180604052508101906109209190610fd6565b9050600061092f836012610c46565b9050600061093e836012610c46565b9050600081838a61094f91906115a5565b6109599190611324565b90508915610ad75760018161096e91906112ce565b9050600460009054906101000a900473ffffffffffffffffffffffffffffffffffffffff1673ffffffffffffffffffffffffffffffffffffffff166323b872dd3330846040518463ffffffff1660e01b81526004016109cf93929190611138565b602060405180830381600087803b1580156109e957600080fd5b505af11580156109fd573d6000803e3d6000fd5b505050506040513d601f19601f82011682018060405250810190610a219190610ede565b50600360009054906101000a900473ffffffffffffffffffffffffffffffffffffffff1673ffffffffffffffffffffffffffffffffffffffff1663a9059cbb338b6040518363ffffffff1660e01b8152600401610a7f92919061116f565b602060405180830381600087803b158015610a9957600080fd5b505af1158015610aad573d6000803e3d6000fd5b505050506040513d601f19601f82011682018060405250810190610ad19190610ede565b50610c3a565b600360009054906101000a900473ffffffffffffffffffffffffffffffffffffffff1673ffffffffffffffffffffffffffffffffffffffff166323b872dd33308c6040518463ffffffff1660e01b8152600401610b3693929190611138565b602060405180830381600087803b158015610b5057600080fd5b505af1158015610b64573d6000803e3d6000fd5b505050506040513d601f19601f82011682018060405250810190610b889190610ede565b50600460009054906101000a900473ffffffffffffffffffffffffffffffffffffffff1673ffffffffffffffffffffffffffffffffffffffff1663a9059cbb33836040518363ffffffff1660e01b8152600401610be692919061116f565b602060405180830381600087803b158015610c0057600080fd5b505af1158015610c14573d6000803e3d6000fd5b505050506040513d601f19601f82011682018060405250810190610c389190610ede565b505b50505050505050505050565b600080836000015160070b1280610c6457506000836040015160030b135b80610c9557507fffffffffffffffffffffffffffffffffffffffffffffffffffffffffffffff01836040015160030b125b15610c9f57600080fd5b600083604001517fffffffffffffffffffffffffffffffffffffffffffffffffffffffffffffffff610cd191906114c6565b905060008184610ce191906115ff565b60ff1610610d25578083610cf591906115ff565b60ff16600a610d0491906113a8565b846000015167ffffffffffffffff16610d1d91906115a5565b915050610d5d565b8281610d3191906115ff565b60ff16600a610d4091906113a8565b846000015167ffffffffffffffff16610d599190611324565b9150505b92915050565b600081359050610d72816117ae565b92915050565b60008083601f840112610d8a57600080fd5b8235905067ffffffffffffffff811115610da357600080fd5b602083019150836020820283011115610dbb57600080fd5b9250929050565b600081359050610dd1816117c5565b92915050565b600081519050610de6816117c5565b92915050565b600081359050610dfb816117dc565b92915050565b600081519050610e10816117f3565b92915050565b600081519050610e258161180a565b92915050565b600060808284031215610e3d57600080fd5b610e47608061120d565b90506000610e5784828501610e16565b6000830152506020610e6b84828501610ec9565b6020830152506040610e7f84828501610e01565b6040830152506060610e9384828501610eb4565b60608301525092915050565b600081359050610eae81611821565b92915050565b600081519050610ec381611821565b92915050565b600081519050610ed881611838565b92915050565b600060208284031215610ef057600080fd5b6000610efe84828501610dd7565b91505092915050565b60008060008060608587031215610f1d57600080fd5b6000610f2b87828801610dc2565b9450506020610f3c87828801610e9f565b935050604085013567ffffffffffffffff811115610f5957600080fd5b610f6587828801610d78565b925092505092959194509250565b60008060008060808587031215610f8957600080fd5b6000610f9787828801610dec565b9450506020610fa887828801610dec565b9350506040610fb987828801610d63565b9250506060610fca87828801610d63565b91505092959194509250565b600060808284031215610fe857600080fd5b6000610ff684828501610e2b565b91505092915050565b60006020828403121561101157600080fd5b600061101f84828501610eb4565b91505092915050565b60006110358484846110d2565b90509392505050565b61104781611633565b82525050565b60006110598385611255565b93508360208402850161106b8461123e565b8060005b878110156110b15784840389526110868284611277565b611091868284611028565b955061109c84611248565b935060208b019a50505060018101905061106f565b50829750879450505050509392505050565b6110cc81611651565b82525050565b60006110de8385611266565b93506110eb8385846116f4565b6110f483611790565b840190509392505050565b611108816116d0565b82525050565b61111781611695565b82525050565b6000602082019050611132600083018461103e565b92915050565b600060608201905061114d600083018661103e565b61115a602083018561103e565b611167604083018461110e565b949350505050565b6000604082019050611184600083018561103e565b611191602083018461110e565b9392505050565b600060208201905081810360008301526111b381848661104d565b90509392505050565b60006020820190506111d160008301846110c3565b92915050565b60006020820190506111ec60008301846110ff565b92915050565b6000602082019050611207600083018461110e565b92915050565b6000604051905081810181811067ffffffffffffffff8211171561123457611233611761565b5b8060405250919050565b6000819050919050565b6000602082019050919050565b600082825260208201905092915050565b600082825260208201905092915050565b6000808335600160200384360303811261129057600080fd5b83810192508235915060208301925067ffffffffffffffff8211156112b457600080fd5b6001820236038413156112c657600080fd5b509250929050565b60006112d982611695565b91506112e483611695565b9250827fffffffffffffffffffffffffffffffffffffffffffffffffffffffffffffffff0382111561131957611318611703565b5b828201905092915050565b600061132f82611695565b915061133a83611695565b92508261134a57611349611732565b5b828204905092915050565b6000808291508390505b600185111561139f5780860481111561137b5761137a611703565b5b600185161561138a5780820291505b8081029050611398856117a1565b945061135f565b94509492505050565b60006113b382611695565b91506113be8361169f565b92506113eb7fffffffffffffffffffffffffffffffffffffffffffffffffffffffffffffffff84846113f3565b905092915050565b60008261140357600190506114bf565b8161141157600090506114bf565b8160018114611427576002811461143157611460565b60019150506114bf565b60ff84111561144357611442611703565b5b8360020a91508482111561145a57611459611703565b5b506114bf565b5060208310610133831016604e8410600b84101617156114955782820a9050838111156114905761148f611703565b5b6114bf565b6114a28484846001611355565b925090508184048111156114b9576114b8611703565b5b81810290505b9392505050565b60006114d18261165b565b91506114dc8361165b565b925082637fffffff04821160008413600084131616156114ff576114fe611703565b5b817fffffffffffffffffffffffffffffffffffffffffffffffffffffffff80000000058312600084126000841316161561153c5761153b611703565b5b827fffffffffffffffffffffffffffffffffffffffffffffffffffffffff80000000058212600084136000841216161561157957611578611703565b5b82637fffffff058212600084126000841216161561159a57611599611703565b5b828202905092915050565b60006115b082611695565b91506115bb83611695565b9250817fffffffffffffffffffffffffffffffffffffffffffffffffffffffffffffffff04831182151516156115f4576115f3611703565b5b828202905092915050565b600061160a826116c3565b9150611615836116c3565b92508282101561162857611627611703565b5b828203905092915050565b600061163e82611675565b9050919050565b60008115159050919050565b6000819050919050565b60008160030b9050919050565b60008160070b9050919050565b600073ffffffffffffffffffffffffffffffffffffffff82169050919050565b6000819050919050565b600063ffffffff82169050919050565b600067ffffffffffffffff82169050919050565b600060ff82169050919050565b60006116db826116e2565b9050919050565b60006116ed82611675565b9050919050565b82818337600083830152505050565b7f4e487b7100000000000000000000000000000000000000000000000000000000600052601160045260246000fd5b7f4e487b7100000000000000000000000000000000000000000000000000000000600052601260045260246000fd5b7f4e487b7100000000000000000000000000000000000000000000000000000000600052604160045260246000fd5b6000601f19601f8301169050919050565b60008160011c9050919050565b6117b781611633565b81146117c257600080fd5b50565b6117ce81611645565b81146117d957600080fd5b50565b6117e581611651565b81146117f057600080fd5b50565b6117fc8161165b565b811461180757600080fd5b50565b61181381611668565b811461181e57600080fd5b50565b61182a81611695565b811461183557600080fd5b50565b611841816116af565b811461184c57600080fd5b5056fea264697066735822122007ed57f773f4f9c9797b8f7cfcfadeae5dc863acab55b8cd989a68c80407e48b64736f6c63430008000033","abi":[{"inputs":[{"internalType":"address","name":"_pyth","type":"address"},{"internalType":"bytes32","name":"_baseTokenPriceId","type":"bytes32"},{"internalType":"bytes32","name":"_quoteTokenPriceId","type":"bytes32"},{"internalType":"address","name":"_baseToken","type":"address"},{"internalType":"address","name":"_quoteToken","type":"address"}],"stateMutability":"nonpayable","type":"constructor"},{"anonymous":false,"inputs":[{"indexed":false,"internalType":"address","name":"from","type":"address"},{"indexed":false,"internalType":"address","name":"to","type":"address"},{"indexed":false,"internalType":"uint256","name":"amountUsd","type":"uint256"},{"indexed":false,"internalType":"uint256","name":"amountWei","type":"uint256"}],"name":"Transfer","type":"event"},{"inputs":[],"name":"baseBalance","outputs":[{"internalType":"uint256","name":"","type":"uint256"}],"stateMutability":"view","type":"function"},{"inputs":[],"name":"baseToken","outputs":[{"internalType":"contract ERC20","name":"","type":"address"}],"stateMutability":"view","type":"function"},{"inputs":[],"name":"quoteBalance","outputs":[{"internalType":"uint256","name":"","type":"uint256"}],"stateMutability":"view","type":"function"},{"inputs":[],"name":"quoteToken","outputs":[{"internalType":"contract ERC20","name":"","type":"address"}],"stateMutability":"view","type":"function"},{"inputs":[{"internalType":"bytes32","name":"_baseTokenPriceId","type":"bytes32"},{"internalType":"bytes32","name":"_quoteTokenPriceId","type":"bytes32"},{"internalType":"address","name":"_baseToken","type":"address"},{"internalType":"address","name":"_quoteToken","type":"address"}],"name":"reinitialize","outputs":[],"stateMutability":"nonpayable","type":"function"},{"inputs":[{"internalType":"bool","name":"isBuy","type":"bool"},{"internalType":"uint256","name":"size","type":"uint256"},{"internalType":"bytes[]","name":"pythUpdateData","type":"bytes[]"}],"name":"swap","outputs":[],"stateMutability":"payable","type":"function"},{"inputs":[],"name":"withdrawAll","outputs":[],"stateMutability":"nonpayable","type":"function"},{"stateMutability":"payable","type":"receive"}]}